:020000020000FC
:040000000C9422003A
:04000C000C94070247
:100040000C9448020FEF0DBF18E01EBF00E800E857
:100050000093610001E00093610000E004B90FE14A
:1000600005B90FE307B90FEF0AB90FE100936B0071
:1000700001E00093680000E00093C10001E0789483
:100080000024112422243324442455246624772474
:100090007724DD244427AA24CC2401E0902EB02E1E
:1000A0000E943E02002D003051F0013051F002302C
:1000B00051F0033051F0043000240C9452000C94A1
:1000C0006B000C94C8000C9417010C947C010C94E8
:1000D000ED010C94EF010EE008B9F4E0E4E0E40D6A
:1000E000E491EBB90E94F1010DE008B9F4E0E4E01D
:1000F000E30DE491EBB90E94F1010BE008B9F4E0E3
:10010000E4E0E20DE491EBB90E94F10107E008B9E7
:10011000F4E0E4E0E10DE491EBB90E94F101423337
:1001200089F00D2D0D33B1F0012D0A30B9F0022DFB
:100130000630C1F0032D0A30C9F0042D0230D1F091
:100140000C945200442700E108B90E94FE01D394A8
:100150000C946B00DD2413940C946B0011242394F5
:100160000C946B00222433940C946B00332443943E
:100170000C946B00032D043011F00C946B009394DD
:100180004424332422241124DD2444270C946B00BE
:100190000EE008B9F4E0E4E0EC0DE491EBB90E9464
:1001A000F1010DE008B9F4E0E4E0EB0DE491EBB906
:1001B0000E94F1010BE008B9F4E0E4E0EA0DE491FB
:1001C000EBB90E94F10107E008B9F4E0E4E0E90DC1
:1001D000E491EBB90E94F101092D0A3049F00A2D92
:1001E000033059F00B2D0A3091F00C2D013099F0AD
:1001F00001E0902EA3940C947C01092D023011F0A3
:100200000C947C0101E0902EAA240C947C01BB2468
:10021000C3940C947C010B2D033011F00C947C01E1
:1002200001E0B02ECC240C947C010C9452000EE022
:1002300008B9F4E0E4E0E40DE491EBB90E94F101C7
:100240000DE008B9F4E0E4E0E30DE491EBB90E94BD
:10025000F1010BE008B9F4E0E4E0E20DE491EBB960
:100260000E94F10107E008B9F4E0E4E0E10DE49157
:10027000EBB90E94F101012D0A3099F00F3FA9F06E
:10028000022D0630B9F00F3FC9F0032D0A30E1F01E
:100290000F3FF1F0042D023001F10F3F39F10C94C2
:1002A0005200112423940C9417012A9409E0102E73
:1002B0000C941701112422240C94170105E0202E20
:1002C00009E0102E0C941701439433240C94170169
:1002D0004A9409E0302E0C941701032D043011F0DC
:1002E0000C941701442433240C94170102E0402E8F
:1002F00003E0302E0C9417010EE008B9F4E0E4E0BE
:10030000EC0DE491EBB90E94F1010DE008B9F4E0C5
:10031000E4E0EB0DE491EBB90E94F1010BE008B9C8
:10032000F4E0E4E0EA0DE491EBB90E94F10107E0AA
:1003300008B9F4E0E4E0E90DE491EBB90E94F101C1
:10034000092D0A3099F00030B1F00A2D0330D1F0B8
:100350000F3FE9F00B2D0A3001F1003011F10C2DA7
:10036000013031F10F3F71F10C94520001E0902EF9
:10037000A3940C947C010A2D0030AA9409E0902EDD
:100380000C947C01092D023019F10C947C0103E0DE
:10039000A02E01E0902E0C947C01BB24C3940C94FD
:1003A0007C010C2D0030CA9409E0B02E0C947C0125
:1003B0000B2D033011F00C947C0101E0B02ECC2405
:1003C0000C947C0101E0C02E02E0B02E0C947C0164
:1003D00001E0902EAA240C947C010C9452000C9401
:1003E00052003FEF3A95F1F73FEF3A95F1F73FEFC3
:1003F0003A95F1F73FEF3A95F1F7089534E13A95E0
:1004000089F708957E0CB69ECCDAFA0EFEDE0F93C5
:100410000FB70F931F9303B104FF0394102D1230F5
:1004200031F0133071F0143001F10C94380200FFF8
:10043000139401FF1A9402FF339403FF3A940C942F
:10044000380200FF939401FF9A9402FFB39403FFD4
:10045000BA940C94380200FF539401FF5A9402FF9F
:10046000739403FF7A940C94380200240C9438029D
:10047000D89A1F910F910FBF0F91189500E004BDFE
:1004800005E005BD04E606BD01E000936E00089599
:100490000F930FB70F9304E606BDA89A43950F91EB
:0604A0000FBF0F9118953B
:00000001FF
